:100000000C9434000C9451000C9451000C94510049
:100010000C9451000C9451000C9451000C9451001C
:100020000C9451000C9451000C9451000C9451000C
:100030000C9451000C9451000C9451000C945100FC
:100040000C9451000C9451000C9451000C945100EC
:100050000C9451000C9451000C9451000C945100DC
:100060000C9451000C94510011241FBECFEFD8E026
:10007000DEBFCDBF11E0A0E0B1E0E0EDF3E002C0F3
:1000800005900D92A83EB107D9F721E0A8EEB1E0A6
:1000900001C01D92A83EB207E1F70E94CF010C9467
:1000A000E6010C9400008EBD0DB407FEFDCF8DB5AA
:1000B0008F778DBD08958FEF8EBD0DB407FEFDCFF8
:1000C0008DB58F778DBD8EB50895EF92FF920F930A
:1000D0001F93CF93DF93C82F142F052FF62EE72EF3
:1000E0000E945B008C2F80640E9453008E2D0E9422
:1000F00053008F2D0E945300802F0E945300812FA8
:100100000E945300CC2319F0C83029F008C085E9BB
:100110000E94530007C087E80E94530003C08FEF7E
:100120000E945300C0E006C00E945B00D82F8F3FA2
:1001300019F4CF5FCA30C0F38D2FDF91CF911F919B
:100140000F91FF90EF90089584B18C6284B984B1CF
:100150008F7E84B985B1846085B983E58CBD8DB50A
:100160008E7F8DBD0895EF92FF920F931F93CF93D3
:10017000DF9300D000D0CDB7DEB78111EBC00E9475
:10018000A40085B1846085B98FE99FE00197F1F7FC
:1001900000C0000010E003C00E945B001F5F1A3027
:1001A000D8F385B18B7F85B900E010E040E050E0E6
:1001B000BA0180E00E946500813069F00F3F91E054
:1001C000190731F480E091E00E94C20181E0C3C0D0
:1001D0000F5F1F4FEBCF85B1846085B90E945B0034
:1001E00085B18B7F85B94AEA51E060E070E088E034
:1001F0000E946500813019F50DC0E12EF12C0E949E
:100200005B00E1E0F0E0EC0FFD1FEE0DFF1D8083D1
:100210001F5F01C010E0143080F38B8180FF06C0A7
:100220008C818A3A19F4EE24E3940EC08BE291E0BB
:100230000E94C20185B1846085B981E08CC081E5EE
:1002400091E00E94C201E12C85B1846085B90E94D1
:100250005B0000E010E030C085B18B7F85B940E0E5
:1002600050E0BA0187E30E946500EE2029F040E0EB
:1002700050E060E070E403C040E050E0BA0189E281
:100280000E946500F82E85B1846085B90E945B00EC
:10029000FF20B1F08FE39CE90197F1F700C0000067
:1002A000073E93E0190731F482E691E00E94C20113
:1002B00081E051C00F5F1F4F083E83E0180760F2D6
:1002C00085B18B7F85B940E050E0BA018AE30E9496
:1002D0006500882379F010E016C0E12EF12C0E9411
:1002E0005B00E1E0F0E0EC0FFD1FEE0DFF1D8083F1
:1002F0001F5F01C010E0143080F3898186FD02C0C9
:1003000010E001C011E085B1846085B90E945B00F6
:10031000111118C085B18B7F85B940E052E060E0D3
:1003200070E080E10E946500182F85B1846085B976
:100330000E945B00112331F083E791E00E94C2012B
:1003400081E009C08CB58C7F8CBD8DB581608DBD81
:1003500080E001C081E00F900F900F900F90DF912F
:10036000CF911F910F91FF90EF9008951092C500CB
:1003700087E68093C40088E08093C10086E0809384
:10038000C2000895FC0107C09091C00095FFFCCF0A
:1003900031968093C60080818111F6CF08950E9426
:1003A000B60183E891E00E94C20180E00E94B300A0
:1003B000811105C084EC91E00E94C201FFCF82EA66
:1003C00091E00E94C2018FEF9FEF0895F894FFCF54
:1003D00053504920776F726B696E672C2062757479
:1003E000206E6F20534420726573706F6E736520AA
:1003F000746F20434D44302E0A0D00434D44383A6B
:1004000020696E76616C696420766F6C74616765D3
:100410002F74657374207061747465726E2E0A0D8A
:10042000004F6C64657220534420636172642E0A2D
:100430000D0041434D443431206661696C65642E82
:100440000A0D00434D443136206661696C65642EA7
:100450000A0D00312E20535049202620534420639A
:1004600061726420696E697469616C697A652E0ACB
:100470000D0020202D205344206361726420696E9A
:10048000697469616C697A65206661696C65642E5E
:100490000A0A0D0020202D2053442063617264203D
:1004A000696E697469616C697A65207375636365E7
:0804B00073732E0A0A0D00000F
:00000001FF
